:1000000000308A000428000003081F39830083168B
:1000100003170908C039890003131F129F1200300B
:1000200003178800831287018801890183137130C7
:10003000831603138F0090010F0803170908C039B6
:10004000890003131F129F120130031788008312C7
:1000500003131F179F1383169F1383121F1400305F
:10006000F8001F08C33978049F009F149F18362892
:100070001E08A00020087F3C031843288316851023
:1000800083128514472883168510831285102F2824
:0200900063000B
:04400E00E22FFF3F5F
:00000001FF
;PIC16F887
;CRC=3C18  CREATED="29-ago.-23 15:10"
