:1000000000308A001E280000713083168F00900196
:100010000F0803170908C039890003131F129F1224
:10002000013003178800831203131F179F138316D1
:100030009F1383121F148A110A12332803081F39D1
:100040008300831603170908C039890003131F12A0
:100050009F120030031788008312870188018901ED
:100060008313031304280030F8001F08C3397804F1
:100070009F009F149F183A281E08A00020087F3C6C
:100080000318472883168510831285144B2883167E
:0A00900085108312851033286300E9
:04400E00E22FFF3F5F
:00000001FF
;PIC16F887
;CRC=F4C0  CREATED="24-feb.-22 12:23"
